S01700004353455F3330362D434F4E54524F4C2E73726563EC
S11300000C942A000C943F000C943F000C943F0085
S11300100C943F000C943F000C943F000C943F0060
S11300200C943F000C943F000C943F000C943F0050
S11300300C943F000C943F000C943F000C943F0040
S11300400C943F000C943F000C943F000C943F0030
S11300500C943F0011241FBECFE5D8E0DEBFCDBF16
S113006010E0A0E6B0E0EEECF0E002C005900D92E6
S1130070A038B107D9F70E9441000C9465000C9494
S1130080000080E884BF84BF80EF8ABB8FEF87BB0A
S113009084BB4FEF242F30E089B38F7090E0281792
S11300A03907C1F349B34F70E42FF0E0EE0FFF1F9F
S11300B0E05AFF4F808188BB818185BB83ED90E34B
S11100C00197F1F700C00000E5CFF894FFCFE0
S11300CE020905050005030503094006010901059A
S11300DE2100020508000409110080070009060525
S9030000FC
